{
  "contractName": "Food",
  "abi": [
    {
      "anonymous": false,
      "inputs": [
        {
          "indexed": false,
          "name": "restaurantId",
          "type": "uint256"
        }
      ],
      "name": "newRestaurant",
      "type": "event"
    },
    {
      "anonymous": false,
      "inputs": [
        {
          "indexed": false,
          "name": "orderId",
          "type": "uint256"
        },
        {
          "indexed": false,
          "name": "restaurant",
          "type": "address"
        }
      ],
      "name": "newOrder",
      "type": "event"
    },
    {
      "anonymous": false,
      "inputs": [
        {
          "indexed": false,
          "name": "orderId",
          "type": "uint256"
        },
        {
          "indexed": false,
          "name": "orderer",
          "type": "address"
        }
      ],
      "name": "orderCanceled",
      "type": "event"
    },
    {
      "anonymous": false,
      "inputs": [
        {
          "indexed": false,
          "name": "orderId",
          "type": "uint256"
        },
        {
          "indexed": false,
          "name": "orderer",
          "type": "address"
        }
      ],
      "name": "orderApproved",
      "type": "event"
    },
    {
      "anonymous": false,
      "inputs": [
        {
          "indexed": false,
          "name": "orderId",
          "type": "uint256"
        },
        {
          "indexed": false,
          "name": "deliverer",
          "type": "address"
        },
        {
          "indexed": false,
          "name": "restaurant",
          "type": "address"
        }
      ],
      "name": "orderAccepted",
      "type": "event"
    },
    {
      "anonymous": false,
      "inputs": [
        {
          "indexed": false,
          "name": "orderId",
          "type": "uint256"
        },
        {
          "indexed": false,
          "name": "orderer",
          "type": "address"
        }
      ],
      "name": "orderPickedup",
      "type": "event"
    },
    {
      "constant": false,
      "inputs": [
        {
          "name": "area",
          "type": "string"
        }
      ],
      "name": "addArea",
      "outputs": [],
      "payable": false,
      "stateMutability": "nonpayable",
      "type": "function"
    },
    {
      "constant": true,
      "inputs": [
        {
          "name": "id",
          "type": "uint256"
        }
      ],
      "name": "getArea",
      "outputs": [
        {
          "name": "area",
          "type": "string"
        }
      ],
      "payable": false,
      "stateMutability": "view",
      "type": "function"
    },
    {
      "constant": true,
      "inputs": [],
      "name": "getAreas",
      "outputs": [
        {
          "name": "",
          "type": "string[]"
        }
      ],
      "payable": false,
      "stateMutability": "view",
      "type": "function"
    },
    {
      "constant": false,
      "inputs": [
        {
          "name": "name",
          "type": "string"
        },
        {
          "name": "addr",
          "type": "string"
        },
        {
          "name": "areaId",
          "type": "uint256"
        }
      ],
      "name": "addRestaurant",
      "outputs": [],
      "payable": true,
      "stateMutability": "payable",
      "type": "function"
    },
    {
      "constant": true,
      "inputs": [
        {
          "name": "id",
          "type": "uint256"
        }
      ],
      "name": "getRestaurant",
      "outputs": [
        {
          "name": "name",
          "type": "string"
        },
        {
          "name": "addr",
          "type": "string"
        },
        {
          "name": "areaId",
          "type": "uint256"
        },
        {
          "name": "itemCount",
          "type": "uint256"
        }
      ],
      "payable": false,
      "stateMutability": "view",
      "type": "function"
    },
    {
      "constant": false,
      "inputs": [
        {
          "name": "id",
          "type": "uint256"
        },
        {
          "name": "name",
          "type": "string"
        },
        {
          "name": "price",
          "type": "uint256"
        }
      ],
      "name": "addItem",
      "outputs": [],
      "payable": false,
      "stateMutability": "nonpayable",
      "type": "function"
    },
    {
      "constant": true,
      "inputs": [
        {
          "name": "restId",
          "type": "uint256"
        },
        {
          "name": "itemId",
          "type": "uint256"
        }
      ],
      "name": "getItem",
      "outputs": [
        {
          "name": "name",
          "type": "string"
        },
        {
          "name": "price",
          "type": "uint256"
        }
      ],
      "payable": false,
      "stateMutability": "view",
      "type": "function"
    },
    {
      "constant": false,
      "inputs": [
        {
          "name": "name",
          "type": "string"
        },
        {
          "name": "addr",
          "type": "string"
        },
        {
          "name": "phoneNo",
          "type": "uint256"
        }
      ],
      "name": "register",
      "outputs": [],
      "payable": false,
      "stateMutability": "nonpayable",
      "type": "function"
    },
    {
      "constant": false,
      "inputs": [
        {
          "name": "items",
          "type": "uint256[]"
        },
        {
          "name": "quantities",
          "type": "uint256[]"
        },
        {
          "name": "areaId",
          "type": "uint256"
        },
        {
          "name": "fullAddress",
          "type": "string"
        },
        {
          "name": "restId",
          "type": "uint256"
        }
      ],
      "name": "placeOrder",
      "outputs": [],
      "payable": true,
      "stateMutability": "payable",
      "type": "function"
    },
    {
      "constant": true,
      "inputs": [
        {
          "name": "id",
          "type": "uint256"
        }
      ],
      "name": "getOrder",
      "outputs": [
        {
          "components": [
            {
              "name": "orderer",
              "type": "address"
            },
            {
              "name": "deliverer",
              "type": "address"
            },
            {
              "name": "fund",
              "type": "uint256"
            },
            {
              "name": "restaurantId",
              "type": "uint256"
            },
            {
              "name": "items",
              "type": "uint256[]"
            },
            {
              "name": "quantities",
              "type": "uint256[]"
            },
            {
              "name": "areaId",
              "type": "uint256"
            },
            {
              "name": "fullAddress",
              "type": "string"
            },
            {
              "name": "isCanceled",
              "type": "bool"
            },
            {
              "name": "restaurantApproved",
              "type": "bool"
            },
            {
              "name": "pickupConfirmed",
              "type": "bool"
            },
            {
              "name": "orderReceived",
              "type": "bool"
            },
            {
              "name": "reclaimed",
              "type": "bool"
            },
            {
              "name": "orderTime",
              "type": "uint256"
            }
          ],
          "name": "",
          "type": "tuple"
        }
      ],
      "payable": false,
      "stateMutability": "view",
      "type": "function"
    },
    {
      "constant": false,
      "inputs": [
        {
          "name": "orderId",
          "type": "uint256"
        }
      ],
      "name": "cancelOrder",
      "outputs": [],
      "payable": false,
      "stateMutability": "nonpayable",
      "type": "function"
    },
    {
      "constant": false,
      "inputs": [
        {
          "name": "orderId",
          "type": "uint256"
        }
      ],
      "name": "receiveOrder",
      "outputs": [],
      "payable": false,
      "stateMutability": "nonpayable",
      "type": "function"
    },
    {
      "constant": false,
      "inputs": [
        {
          "name": "orderId",
          "type": "uint256"
        }
      ],
      "name": "approveOrder",
      "outputs": [],
      "payable": false,
      "stateMutability": "nonpayable",
      "type": "function"
    },
    {
      "constant": true,
      "inputs": [
        {
          "name": "areaId",
          "type": "uint256"
        }
      ],
      "name": "searchAreaRestaurant",
      "outputs": [
        {
          "name": "",
          "type": "uint256[]"
        },
        {
          "name": "",
          "type": "string[]"
        },
        {
          "name": "",
          "type": "string[]"
        }
      ],
      "payable": false,
      "stateMutability": "view",
      "type": "function"
    },
    {
      "constant": false,
      "inputs": [
        {
          "name": "orderId",
          "type": "uint256"
        }
      ],
      "name": "reclaim",
      "outputs": [],
      "payable": false,
      "stateMutability": "nonpayable",
      "type": "function"
    },
    {
      "constant": true,
      "inputs": [
        {
          "name": "areaId",
          "type": "uint256"
        }
      ],
      "name": "searchAreaOrder",
      "outputs": [
        {
          "name": "",
          "type": "uint256[]"
        },
        {
          "name": "",
          "type": "address[]"
        },
        {
          "name": "",
          "type": "string[]"
        },
        {
          "name": "",
          "type": "uint256[]"
        }
      ],
      "payable": false,
      "stateMutability": "view",
      "type": "function"
    },
    {
      "constant": false,
      "inputs": [
        {
          "name": "orderId",
          "type": "uint256"
        }
      ],
      "name": "acceptOrder",
      "outputs": [],
      "payable": true,
      "stateMutability": "payable",
      "type": "function"
    },
    {
      "constant": false,
      "inputs": [
        {
          "name": "orderId",
          "type": "uint256"
        }
      ],
      "name": "confirmPickup",
      "outputs": [],
      "payable": false,
      "stateMutability": "nonpayable",
      "type": "function"
    },
    {
      "constant": false,
      "inputs": [
        {
          "name": "option",
          "type": "uint256"
        }
      ],
      "name": "genEvent",
      "outputs": [],
      "payable": false,
      "stateMutability": "nonpayable",
      "type": "function"
    }
  ],
  "bytecode": "0x608060405260008054600160a060020a03191633179055600a60025560326003556064600455603c60055534801561003657600080fd5b506133ea806100466000396000f3fe608060405260043610610131576000357c01000000000000000000000000000000000000000000000000000000009004806397bab12f116100bd578063d09ef24111610081578063d09ef24114610333578063d33bcb5514610360578063dbb4be2c14610380578063e8a60558146103a0578063ef18e9ed146103c057610131565b806397bab12f14610274578063b776fc1514610294578063bd4b8a04146102b4578063c298f1e7146102d4578063c81a387b1461030457610131565b8063514fcac711610104578063514fcac7146101d357806359cc334a146101f35780636490c7a81461022157806372c8ef0f1461024e57806389b0e1971461026157610131565b80632171197a146101365780632dabbeed146101585780632ea3981a14610178578063420c08d8146101a3575b600080fd5b34801561014257600080fd5b50610156610151366004612b44565b6103d3565b005b34801561016457600080fd5b50610156610173366004612b44565b6105c2565b34801561018457600080fd5b5061018d6107e8565b60405161019a9190613082565b60405180910390f35b3480156101af57600080fd5b506101c36101be366004612b44565b6108c1565b60405161019a9493929190613093565b3480156101df57600080fd5b506101566101ee366004612b44565b610e8a565b3480156101ff57600080fd5b5061021361020e366004612b83565b610ffb565b60405161019a9291906131cf565b34801561022d57600080fd5b5061024161023c366004612b44565b6110e2565b60405161019a919061317d565b61015661025c366004612ac8565b61118b565b61015661026f3660046129cf565b6112fc565b34801561028057600080fd5b5061015661028f366004612b44565b6117d4565b3480156102a057600080fd5b506101566102af366004612b62565b6118d0565b3480156102c057600080fd5b506101566102cf366004612b44565b611986565b3480156102e057600080fd5b506102f46102ef366004612b44565b611a55565b60405161019a949392919061318e565b34801561031057600080fd5b5061032461031f366004612b44565b611bb9565b60405161019a939291906130ea565b34801561033f57600080fd5b5061035361034e366004612b44565b612065565b60405161019a919061325f565b34801561036c57600080fd5b5061015661037b366004612b44565b612271565b34801561038c57600080fd5b5061015661039b366004612a8b565b6123c8565b3480156103ac57600080fd5b506101566103bb366004612ac8565b612427565b6101566103ce366004612b44565b61249b565b80610415577fe1f646fb9fbd0df83871429c44bd4b7597a75929f1687574c20d54884fb10f4f6000604051610408919061312c565b60405180910390a16105bf565b8060011415610464577faf1c54a4cd9e217317fbed7ea49596cdcacb707ee88460a00fa1c1ca780ea82560007302d91ba6b954cfa50b2dd685212dae7cf26b52b960405161040892919061313a565b80600214156104b3577f8cd0c40718b4685e7ef989908e0dbb7523bbd6db2d870cbb6c78f838074d29196000737e3d972a5916b6dd9b3d518bf8f36d891cecb91060405161040892919061313a565b8060031415610502577fee293e8a1e67c7ec955ed966cae51b318c63b933a502845d637175ccf446dc5b6000737e3d972a5916b6dd9b3d518bf8f36d891cecb91060405161040892919061313a565b8060041415610567577f60fd9dfa624e807faf3af33c3043aae1ed8c6ebe194cf399a4cf6997b6b7e25c600073bfb21c004eedc4229d30485e09fca941eb76223a7302d91ba6b954cfa50b2dd685212dae7cf26b52b960405161040893929190613155565b80600514156105bf577f9830ab083f482a01fcb7d96d20bb979a0220c8d3a95891685c72b26221dea8fe6000737e3d972a5916b6dd9b3d518bf8f36d891cecb9106040516105b692919061313a565b60405180910390a15b50565b6000600982815481106105d157fe5b60009182526020909120600a909102018054909150600160a060020a031633146106195760405160e560020a62461bcd028152600401610610906131ef565b60405180910390fd5b600881015460ff1615801561063a575060088101546301000000900460ff16155b801561065357506008810154640100000000900460ff16155b6106725760405160e560020a62461bcd028152600401610610906131ff565b42600554603c028260090154011061069f5760405160e560020a62461bcd0281526004016106109061320f565b600454600282015460035483546040516064840490920290920190920191600160a060020a039091169082156108fc029083906000818181858888f193505050501580156106f1573d6000803e3d6000fd5b506008820154610100900460ff1615610773576000600683600301548154811061071757fe5b6000918252602090912060079091020180546002850154919250600160a060020a0316906108fc90610748906126e6565b6040518115909202916000818181858888f19350505050158015610770573d6000803e3d6000fd5b50505b6001820154600160a060020a03166107c75760018201546002830154604051600160a060020a039092169181156108fc0291906000818181858888f193505050501580156107c5573d6000803e3d6000fd5b505b5060006002820155600801805464ff00000000191664010000000017905550565b60606001805480602002602001604051908101604052809291908181526020016000905b828210156108b75760008481526020908190208301805460408051601f60026000196101006001871615020190941693909304928301859004850281018501909152818152928301828280156108a35780601f10610878576101008083540402835291602001916108a3565b820191906000526020600020905b81548152906001019060200180831161088657829003601f168201915b50505050508152602001906001019061080c565b5050505090505b90565b60608080806000805b600954811015610b02576000600982815481106108e357fe5b90600052602060002090600a02019050878160060154148015610aed5750604080516101c0810182528254600160a060020a03908116825260018401541660208083019190915260028401548284015260038401546060830152600484018054845181840281018401909552808552610aed948693608086019391929083018282801561098f57602002820191906000526020600020905b81548152602001906001019080831161097b575b50505050508152602001600582018054806020026020016040519081016040528092919081815260200182805480156109e757602002820191906000526020600020905b8154815260200190600101908083116109d3575b5050509183525050600682015460208083019190915260078301805460408051601f60026000196101006001871615020190941693909304928301859004850281018501825282815294019392830182828015610a855780601f10610a5a57610100808354040283529160200191610a85565b820191906000526020600020905b815481529060010190602001808311610a6857829003601f168201915b5050509183525050600882015460ff8082161515602084015261010082048116151560408401526201000082048116151560608401526301000000820481161515608084015264010000000090910416151560a082015260099091015460c0909101526126fd565b15610af9576001909201915b506001016108ca565b50606081604051908082528060200260200182016040528015610b2f578160200160208202803883390190505b509050606082604051908082528060200260200182016040528015610b5e578160200160208202803883390190505b509050606083604051908082528060200260200182016040528015610b9757816020015b6060815260200190600190039081610b825790505b509050606084604051908082528060200260200182016040528015610bc6578160200160208202803883390190505b50600095509050845b600954811015610e7957600060098281548110610be857fe5b90600052602060002090600a020190508b8160060154148015610d5b5750604080516101c0810182528254600160a060020a03908116825260018401541660208083019190915260028401548284015260038401546060830152600484018054845181840281018401909552808552610d5b948693608086019391929083018282801561098f576020028201919060005260206000209081548152602001906001019080831161097b5750505050508152602001600582018054806020026020016040519081016040528092919081815260200182805480156109e757602002820191906000526020600020908154815260200190600101908083116109d3575050509183525050600682015460208083019190915260078301805460408051601f60026000196101006001871615020190941693909304928301859004850281018501825282815294019392830182828015610a855780601f10610a5a57610100808354040283529160200191610a85565b15610e705781868881518110610d6d57fe5b602090810291909101015280548551600160a060020a0390911690869089908110610d9457fe5b600160a060020a0390921660209283029190910182015260078201805460408051601f6002600019610100600187161502019094169390930492830185900485028101850190915281815292830182828015610e315780601f10610e0657610100808354040283529160200191610e31565b820191906000526020600020905b815481529060010190602001808311610e1457829003601f168201915b5050505050848881518110610e4257fe5b60200260200101819052508060020154838881518110610e5e57fe5b60209081029190910101526001909601955b50600101610bcf565b509299919850965090945092505050565b600060098281548110610e9957fe5b60009182526020909120600a909102018054909150600160a060020a031633148015610eca5750600881015460ff16155b8015610ee257506001810154600160a060020a031615155b610eeb57600080fd5b60088101805460ff19166001179055600454600282015460405133929190910180156108fc02916000818181858888f19350505050158015610f31573d6000803e3d6000fd5b506008810154610100900460ff1615610fb35760006006826003015481548110610f5757fe5b6000918252602090912060079091020180546002840154919250600160a060020a0316906108fc90610f88906126e6565b6040518115909202916000818181858888f19350505050158015610fb0573d6000803e3d6000fd5b50505b80546040517fee293e8a1e67c7ec955ed966cae51b318c63b933a502845d637175ccf446dc5b91610fef918591600160a060020a03169061327e565b60405180910390a15050565b60606000806006858154811061100d57fe5b906000526020600020906007020160060160008581526020019081526020016000209050806000018160010154818054600181600116156101000203166002900480601f0160208091040260200160405190810160405280929190818152602001828054600181600116156101000203166002900480156110cf5780601f106110a4576101008083540402835291602001916110cf565b820191906000526020600020905b8154815290600101906020018083116110b257829003601f168201915b5050505050915092509250509250929050565b6060600182815481106110f157fe5b600091825260209182902001805460408051601f600260001961010060018716150201909416939093049283018590048502810185019091528181529283018282801561117f5780601f106111545761010080835404028352916020019161117f565b820191906000526020600020905b81548152906001019060200180831161116257829003601f168201915b50505050509050919050565b611193612751565b338152346111a057600080fd5b3460208083019182526040830186815260608401869052608084018590526006805460018101808355600092909252855160079091027ff652222313e28459528d920b65115c16c04f3efc82aaedc97be59f3f377c0d3f81018054600160a060020a0390931673ffffffffffffffffffffffffffffffffffffffff1990931692909217825594517ff652222313e28459528d920b65115c16c04f3efc82aaedc97be59f3f377c0d408601559151805191948694611283937ff652222313e28459528d920b65115c16c04f3efc82aaedc97be59f3f377c0d41909201920190612790565b506060820151805161129f916003840191602090910190612790565b506080820151816004015560a082015181600501555050507fe1f646fb9fbd0df83871429c44bd4b7597a75929f1687574c20d54884fb10f4f6001600680549050036040516112ee9190613270565b60405180910390a150505050565b61130461280e565b3381526080810186905260a0810185905260c0810184905260e0810183905260068054600091908490811061133557fe5b60009182526020918290206040805160c0810182526007939093029091018054600160a060020a03168352600180820154848601526002808301805485516101009482161594909402600019011691909104601f810187900487028301870185528083529296506114b2958794860193908301828280156113f75780601f106113cc576101008083540402835291602001916113f7565b820191906000526020600020905b8154815290600101906020018083116113da57829003601f168201915b505050918352505060038201805460408051602060026001851615610100026000190190941693909304601f810184900484028201840190925281815293820193929183018282801561148b5780601f106114605761010080835404028352916020019161148b565b820191906000526020600020905b81548152906001019060200180831161146e57829003601f168201915b50505050508152602001600482015481526020016005820154815250508360400151612731565b6114d15760405160e560020a62461bcd0281526004016106109061324f565b606082018390526000805b8851811015611551578781815181106114f157fe5b60200260200101516006868154811061150657fe5b906000526020600020906007020160060160008b848151811061152557fe5b6020026020010151815260200190815260200160002060010154028201915080806001019150506114dc565b50600454810134146115785760405160e560020a62461bcd0281526004016106109061322f565b60408301818152426101a085015260098054600181018083556000929092528551600a9091027f6e1540171b6c0c960b71a7020d9f60077f6af931a8bbf590da0223dacf75c7af81018054600160a060020a0393841673ffffffffffffffffffffffffffffffffffffffff199182161782556020808a01517f6e1540171b6c0c960b71a7020d9f60077f6af931a8bbf590da0223dacf75c7b0850180549190961692169190911790935593517f6e1540171b6c0c960b71a7020d9f60077f6af931a8bbf590da0223dacf75c7b182015560608701517f6e1540171b6c0c960b71a7020d9f60077f6af931a8bbf590da0223dacf75c7b2820155608087015180519394889490936116ac937f6e1540171b6c0c960b71a7020d9f60077f6af931a8bbf590da0223dacf75c7b301920190612881565b5060a082015180516116c8916005840191602090910190612881565b5060c0820151600682015560e082015180516116ee916007840191602090910190612790565b506101008281015160088301805461012086015161014087015161016088015161018089015160ff199094169515159590951761ff0019169115159095021762ff0000191662010000941515949094029390931763ff00000019166301000000921515929092029190911764ff000000001916640100000000921515929092029190911790556101a0909101516009918201555483546040517faf1c54a4cd9e217317fbed7ea49596cdcacb707ee88460a00fa1c1ca780ea82593506117c2926000190191600160a060020a03169061327e565b60405180910390a15050505050505050565b6000600982815481106117e357fe5b60009182526020909120600a909102018054909150600160a060020a0316331461180c57600080fd5b60088101546301000000900460ff1615801561182d5750600881015460ff16155b801561184557506001810154600160a060020a031615155b61184e57600080fd5b60088101805463ff00000019166301000000179055600060028201819055611875816126e6565b60018301546004546003546002860154604051949550600160a060020a03909316936064840490910290920101830180156108fc02916000818181858888f193505050501580156118ca573d6000803e3d6000fd5b50505050565b6000600684815481106118df57fe5b600091825260209091206007909102018054909150600160a060020a0316331461190857600080fd5b60408051606081018252848152602080820185905260008284018190526005850154815260068501825292909220815180519293919261194b9284920190612790565b5060208201516001828101919091556040909201516002909101805460ff191691151591909117905560059190910180549091019055505050565b60006009828154811061199557fe5b90600052602060002090600a02019050600060068260030154815481106119b857fe5b600091825260209091206007909102018054909150600160a060020a031633146119e157600080fd5b60088201805461ff0019166101001790556002820154611a00906126e6565b60018201805491909103905581546040517fee293e8a1e67c7ec955ed966cae51b318c63b933a502845d637175ccf446dc5b91611a48918691600160a060020a03169061327e565b60405180910390a1505050565b606080600080600060068681548110611a6a57fe5b600091825260209182902060046007909202019081015460058201546002808401805460408051601f600019610100600186161502019093169490940491820188900488028401880190528083529496509460038701948691830182828015611b145780601f10611ae957610100808354040283529160200191611b14565b820191906000526020600020905b815481529060010190602001808311611af757829003601f168201915b5050865460408051602060026001851615610100026000190190941693909304601f810184900484028201840190925281815295995088945092508401905082828015611ba25780601f10611b7757610100808354040283529160200191611ba2565b820191906000526020600020905b815481529060010190602001808311611b8557829003601f168201915b505050505092509450945094509450509193509193565b606080806000805b600654811015611d7857600060068281548110611bda57fe5b90600052602060002090600702019050868160040154148015611d6357506040805160c0810182528254600160a060020a03168152600180840154602080840191909152600280860180548651601f600019968316156101000296909601909116929092049384018390048302820183018652838252611d6395879490860193830182828015611cab5780601f10611c8057610100808354040283529160200191611cab565b820191906000526020600020905b815481529060010190602001808311611c8e57829003601f168201915b505050918352505060038201805460408051602060026001851615610100026000190190941693909304601f8101849004840282018401909252818152938201939291830182828015611d3f5780601f10611d1457610100808354040283529160200191611d3f565b820191906000526020600020905b815481529060010190602001808311611d2257829003601f168201915b50505050508152602001600482015481526020016005820154815250506064612731565b15611d6f576001909201915b50600101611bc1565b50606081604051908082528060200260200182016040528015611da5578160200160208202803883390190505b509050606082604051908082528060200260200182016040528015611dde57816020015b6060815260200190600190039081611dc95790505b509050606083604051908082528060200260200182016040528015611e1757816020015b6060815260200190600190039081611e025790505b50600094509050835b60065481101561205957600060068281548110611e3957fe5b90600052602060002090600702019050898160040154148015611edf57506040805160c0810182528254600160a060020a03168152600180840154602080840191909152600280860180548651601f600019968316156101000296909601909116929092049384018390048302820183018652838252611edf95879490860193830182828015611cab5780601f10611c8057610100808354040283529160200191611cab565b156120505781858781518110611ef157fe5b60209081029190910181019190915260028281018054604080516001831615610100026000190190921693909304601f810185900485028201850190935282815292909190830182828015611f875780601f10611f5c57610100808354040283529160200191611f87565b820191906000526020600020905b815481529060010190602001808311611f6a57829003601f168201915b5050505050848781518110611f9857fe5b60209081029190910181019190915260038201805460408051601f600260001961010060018716150201909416939093049283018590048502810185019091528181529283018282801561202d5780601f106120025761010080835404028352916020019161202d565b820191906000526020600020905b81548152906001019060200180831161201057829003601f168201915b505050505083878151811061203e57fe5b60209081029190910101526001909501945b50600101611e20565b50505050509193909250565b61206d61280e565b6009828154811061207a57fe5b6000918252602091829020604080516101c081018252600a9093029091018054600160a060020a03908116845260018201541683850152600281015483830152600381015460608401526004810180548351818702810187019094528084529394919360808601939283018282801561211257602002820191906000526020600020905b8154815260200190600101908083116120fe575b505050505081526020016005820180548060200260200160405190810160405280929190818152602001828054801561216a57602002820191906000526020600020905b815481526020019060010190808311612156575b5050509183525050600682015460208083019190915260078301805460408051601f600260001961010060018716150201909416939093049283018590048502810185018252828152940193928301828280156122085780601f106121dd57610100808354040283529160200191612208565b820191906000526020600020905b8154815290600101906020018083116121eb57829003601f168201915b5050509183525050600882015460ff8082161515602084015261010082048116151560408401526201000082048116151560608401526301000000820481161515608084015264010000000090910416151560a082015260099091015460c09091015292915050565b60006009828154811061228057fe5b60009182526020909120600a909102016001810154909150600160a060020a031633146122c25760405160e560020a62461bcd028152600401610610906131ef565b600881015460ff161580156122e057506008810154610100900460ff165b80156122f75750600881015462010000900460ff16155b6123165760405160e560020a62461bcd0281526004016106109061323f565b60088101805462ff000019166201000017905560038101546006805460009290811061233e57fe5b60009182526020822060079091020180546002850154604051929450600160a060020a039091169281156108fc029290818181858888f1935050505015801561238b573d6000803e3d6000fd5b5081546040517f9830ab083f482a01fcb7d96d20bb979a0220c8d3a95891685c72b26221dea8fe91611a48918691600160a060020a03169061327e565b600054600160a060020a031633146123df57600080fd5b600180548082018083556000929092528251612422917fb10e2d527612073b26eecdfd717e6a320cf44b4afac2b0732d9fcbe2b7fa0cf601906020850190612790565b505050565b61242f6128bb565b506040805160608101825284815260208082018590528183018490523360009081526008825292909220815180519293849361246e9284920190612790565b5060208281015180516124879260018501920190612790565b506040820151816002015590505050505050565b6000600982815481106124aa57fe5b6000918252602091829020604080516101c081018252600a9093029091018054600160a060020a0390811684526001820154168385015260028101548383015260038101546060840152600481018054835181870281018701909452808452919550612610948693608086019390929183018282801561098f576020028201919060005260206000209081548152602001906001019080831161097b5750505050508152602001600582018054806020026020016040519081016040528092919081815260200182805480156109e757602002820191906000526020600020908154815260200190600101908083116109d3575050509183525050600682015460208083019190915260078301805460408051601f60026000196101006001871615020190941693909304928301859004850281018501825282815294019392830182828015610a855780601f10610a5a57610100808354040283529160200191610a85565b61261957600080fd5b6000600354606483600201548161262c57fe5b040282600201540190508034146126585760405160e560020a62461bcd0281526004016106109061321f565b60018201805473ffffffffffffffffffffffffffffffffffffffff19163317905560038201546006805460009290811061268e57fe5b60009182526020909120600185015460079092020180546040519193507f60fd9dfa624e807faf3af33c3043aae1ed8c6ebe194cf399a4cf6997b6b7e25c926112ee928892600160a060020a0392831692169061328c565b6000600254606483816126f557fe5b040292915050565b6000816101200151801561271c57506020820151600160a060020a0316155b801561272b5750816101000151155b92915050565b60006002546064838161274057fe5b040283602001511015905092915050565b6040518060c001604052806000600160a060020a0316815260200160008152602001606081526020016060815260200160008152602001600081525090565b828054600181600116156101000203166002900490600052602060002090601f016020900481019282601f106127d157805160ff19168380011785556127fe565b828001600101855582156127fe579182015b828111156127fe5782518255916020019190600101906127e3565b5061280a9291506128dc565b5090565b604080516101c08101825260008082526020820181905291810182905260608082018390526080820181905260a0820181905260c0820183905260e0820152610100810182905261012081018290526101408101829052610160810182905261018081018290526101a081019190915290565b8280548282559060005260206000209081019282156127fe57916020028201828111156127fe5782518255916020019190600101906127e3565b60405180606001604052806060815260200160608152602001600081525090565b6108be91905b8082111561280a57600081556001016128e2565b600082601f83011261290757600080fd5b813561291a612915826132c1565b61329a565b9150818183526020840193506020810190508385602084028201111561293f57600080fd5b60005b8381101561296b578161295588826129c4565b8452506020928301929190910190600101612942565b5050505092915050565b600082601f83011261298657600080fd5b8135612994612915826132e2565b915080825260208301602083018583830111156129b057600080fd5b6129bb83828461335a565b50505092915050565b803561272b8161339c565b600080600080600060a086880312156129e757600080fd5b853567ffffffffffffffff8111156129fe57600080fd5b612a0a888289016128f6565b955050602086013567ffffffffffffffff811115612a2757600080fd5b612a33888289016128f6565b9450506040612a44888289016129c4565b935050606086013567ffffffffffffffff811115612a6157600080fd5b612a6d88828901612975565b9250506080612a7e888289016129c4565b9150509295509295909350565b600060208284031215612a9d57600080fd5b813567ffffffffffffffff811115612ab457600080fd5b612ac084828501612975565b949350505050565b600080600060608486031215612add57600080fd5b833567ffffffffffffffff811115612af457600080fd5b612b0086828701612975565b935050602084013567ffffffffffffffff811115612b1d57600080fd5b612b2986828701612975565b9250506040612b3a868287016129c4565b9150509250925092565b600060208284031215612b5657600080fd5b6000612ac084846129c4565b600080600060608486031215612b7757600080fd5b6000612b0086866129c4565b60008060408385031215612b9657600080fd5b6000612ba285856129c4565b9250506020612bb3858286016129c4565b9150509250929050565b6000612bc98383612bff565b505060200190565b6000612bdd8383612d7d565b9392505050565b6000612bc98383613079565b612bf981613339565b82525050565b612bf98161331d565b6000612c1382613310565b612c1d8185613314565b9350612c288361330a565b8060005b83811015612c56578151612c408882612bbd565b9750612c4b8361330a565b925050600101612c2c565b509495945050505050565b6000612c6c82613310565b612c768185613314565b935083602082028501612c888561330a565b8060005b85811015612cc25784840389528151612ca58582612bd1565b9450612cb08361330a565b60209a909a0199925050600101612c8c565b5091979650505050505050565b6000612cda82613310565b612ce48185613314565b9350612cef8361330a565b8060005b83811015612c56578151612d078882612be4565b9750612d128361330a565b925050600101612cf3565b6000612d2882613310565b612d328185613314565b9350612d3d8361330a565b8060005b83811015612c56578151612d558882612be4565b9750612d608361330a565b925050600101612d41565b612bf981613328565b612bf981613344565b6000612d8882613310565b612d928185613314565b9350612da2818560208601613366565b612dab81613392565b9093019392505050565b6000612dc2601083613314565b7f4163636573732072656a65637465642e00000000000000000000000000000000815260200192915050565b6000612dfb601883613314565b7f496e76616c6964207265636c61696d20726571756573742e0000000000000000815260200192915050565b6000612e34601d83613314565b7f547279206166746572206d6178206f72646572206475726174696f6e2e000000815260200192915050565b6000612e6d601683613314565b7f4e6f7420656e6f7567682066756e6420676976656e2e00000000000000000000815260200192915050565b6000612ea6601583613314565b7f4e6f7420656e6f7567682066756e642073656e742e0000000000000000000000815260200192915050565b6000612edf601083613314565b7f496e76616c696420726571756573742e00000000000000000000000000000000815260200192915050565b6000612f18601f83613314565b7f52657374617572616e7420697320756e61626c6520746f2064656c6976657200815260200192915050565b80516000906101c0840190612f598582612bff565b506020830151612f6c6020860182612bff565b506040830151612f7f6040860182613079565b506060830151612f926060860182613079565b5060808301518482036080860152612faa8282612d1d565b91505060a083015184820360a0860152612fc48282612d1d565b91505060c0830151612fd960c0860182613079565b5060e083015184820360e0860152612ff18282612d7d565b915050610100830151613008610100860182612d6b565b5061012083015161301d610120860182612d6b565b50610140830151613032610140860182612d6b565b50610160830151613047610160860182612d6b565b5061018083015161305c610180860182612d6b565b506101a08301516130716101a0860182613079565b509392505050565b612bf9816108be565b60208082528101612bdd8184612c61565b608080825281016130a48187612ccf565b905081810360208301526130b88186612c08565b905081810360408301526130cc8185612c61565b905081810360608301526130e08184612ccf565b9695505050505050565b606080825281016130fb8186612ccf565b9050818103602083015261310f8185612c61565b905081810360408301526131238184612c61565b95945050505050565b6020810161272b8284612d74565b604081016131488285612d74565b612bdd6020830184612bf0565b606081016131638286612d74565b6131706020830185612bf0565b612ac06040830184612bf0565b60208082528101612bdd8184612d7d565b6080808252810161319f8187612d7d565b905081810360208301526131b38186612d7d565b90506131c26040830185613079565b6131236060830184613079565b604080825281016131e08185612d7d565b9050612bdd6020830184613079565b6020808252810161272b81612db5565b6020808252810161272b81612dee565b6020808252810161272b81612e27565b6020808252810161272b81612e60565b6020808252810161272b81612e99565b6020808252810161272b81612ed2565b6020808252810161272b81612f0b565b60208082528101612bdd8184612f44565b6020810161272b8284613079565b604081016131488285613079565b606081016131638286613079565b60405181810167ffffffffffffffff811182821017156132b957600080fd5b604052919050565b600067ffffffffffffffff8211156132d857600080fd5b5060209081020190565b600067ffffffffffffffff8211156132f957600080fd5b506020601f91909101601f19160190565b60200190565b5190565b90815260200190565b600061272b8261332d565b151590565b600160a060020a031690565b600061272b8261334f565b600061272b826108be565b600061272b8261331d565b82818337506000910152565b60005b83811015613381578181015183820152602001613369565b838111156118ca5750506000910152565b601f01601f191690565b6133a5816108be565b81146105bf57600080fdfea265627a7a72305820494544d7fa622b540d6a7bfa0e76128dd8647d1217fde754ac4d4e6551a8f2b06c6578706572696d656e74616cf50037",
  "source": "pragma solidity ^0.5.7;\npragma experimental ABIEncoderV2;\n// import \"github.com/ethereum/dapp-bin/library/stringUtils.sol\";\n\ncontract Food {\n  struct Item {\n    string name;\n    uint256 price;\n    bool disabled;\n  }\n\n  struct Restaurant {\n    address payable owner;\n    uint256 fund;\n    string name;\n    string addr;\n    uint256 areaId;\n    uint256 itemId;\n    mapping(uint256=> Item) items;\n    // Item[] items;\n  }\n\n  struct User {\n    string name;\n    string addr;\n    uint256 phoneNo;\n  }\n\n  struct Order {\n    address payable orderer;\n    address payable deliverer;\n    uint256 fund;\n    uint256 restaurantId;\n    uint256[] items;\n    uint256[] quantities;\n    uint256 areaId;\n    string fullAddress;\n    bool isCanceled;\n    bool restaurantApproved;\n    bool pickupConfirmed;\n    bool orderReceived;\n    bool reclaimed;\n    uint256 orderTime;\n  }\n\n  // Admin methods\n  address admin = msg.sender;\n  string[] areas;\n  uint commissionRate = 10;\n  uint lockedRate = 50;\n  uint256 deliveryFee = 100;\n  uint maxDeliveryTime = 60;\n\n  modifier isAdmin() {\n    require(msg.sender == admin);\n    _;\n  }\n\n  function addArea(string memory area) public isAdmin {\n    // require(!checkAreaExists(area), \"Area already exists.\");\n    areas.push(area);\n  }\n\n  function getArea(uint256 id) public view returns(string memory area){\n    return areas[id];\n  }\n\n  function getAreas() public view returns(string[] memory){\n    return areas;\n  }\n\n  // function checkAreaExists(string memory area) private view returns(bool found){\n  //     for (uint i=0; i<areas.length; i++) {\n  //         if(StringUtils.equal(areas[i], area)) return true;\n  //     }\n  //     return false;\n  // }\n\n\n  // Restaurant methods\n  // mapping(uint256 => Restaurant) restaurants;\n  Restaurant[] restaurants;\n  uint256 restaurantId;\n\n  function addRestaurant(string memory name, string memory addr, uint256 areaId)\n  public payable {\n    Restaurant memory restaurant;\n    restaurant.owner = msg.sender;\n    require(msg.value > 0);\n    restaurant.fund = msg.value;\n    restaurant.name = name;\n    restaurant.addr = addr;\n    restaurant.areaId = areaId;\n    restaurants.push(restaurant);\n    // event\n    emit newRestaurant(restaurants.length -1);\n  }\n\n  function getRestaurant(uint256 id) public view\n  returns(string memory name, string memory addr, uint256 areaId, uint256 itemCount) {\n    Restaurant storage restaurant = restaurants[id];\n    return (restaurant.name, restaurant.addr, restaurant.areaId, restaurant.itemId);\n  }\n\n  function addItem(uint256 id, string memory name, uint256 price) public {\n    Restaurant storage restaurant = restaurants[id];\n    require(restaurant.owner == msg.sender);\n    restaurant.items[restaurant.itemId] = Item(name, price, false);\n    restaurant.itemId++;\n  }\n\n  function getItem(uint256 restId, uint256 itemId) public view\n  returns (string memory name, uint256 price){\n    Item storage item = restaurants[restId].items[itemId];\n    return (item.name, item.price);\n  }\n\n\n  // User mathods\n  mapping(address => User) users;\n\n  function register(string memory name, string memory addr, uint256 phoneNo) public {\n    User memory user = User(name, addr, phoneNo);\n    users[msg.sender] = user;\n  }\n\n  // Orderer methods\n  Order[] orders;\n\n  function placeOrder(uint256[] memory items, uint256[] memory quantities, uint256 areaId,\n    string memory fullAddress, uint256 restId) public payable {\n    // add requires\n    Order memory order;\n    order.orderer = msg.sender;\n    order.items = items;\n    order.quantities = quantities;\n    order.areaId = areaId;\n    order.fullAddress = fullAddress;\n\n    Restaurant storage restaurant = restaurants[restId];\n    require(restaurantIsAvailable(restaurant, order.fund), \"Restaurant is unable to deliver\");\n    order.restaurantId = restId;\n    // calculate prices\n    uint256 price = 0;\n    for(uint i=0; i <items.length; i++){\n      price += restaurants[restId].items[items[i]].price * quantities[i];\n    }\n    require(msg.value == price + deliveryFee , \"Not enough fund sent.\");\n\n    order.fund = price;\n    order.orderTime = now;\n    orders.push(order);\n    //event\n    emit newOrder(orders.length -1, restaurant.owner);\n  }\n\n  function getOrder(uint256 id) public view returns(Order memory){\n    return orders[id];\n  }\n\n  function cancelOrder(uint256 orderId) public {\n    Order storage order = orders[orderId];\n    require(order.orderer == msg.sender && !order.isCanceled\n    && order.deliverer != address(0));\n    order.isCanceled = true;\n    // transfer fund\n    msg.sender.transfer(order.fund + deliveryFee);\n    if(order.restaurantApproved){\n      // unlock deliverer commission\n      Restaurant storage restaurant = restaurants[order.restaurantId];\n      restaurant.owner.transfer(calculateCommission(order.fund));\n    }\n    // event\n    emit orderApproved(orderId, order.orderer);\n  }\n\n  function receiveOrder(uint256 orderId) public {\n    Order storage order = orders[orderId];\n    require(order.orderer == msg.sender);\n    require(!order.orderReceived && !order.isCanceled && order.deliverer != address(0));\n    order.orderReceived = true;\n    order.fund = 0;\n    // transfer\n    uint256 commission = calculateCommission(order.fund);\n    order.deliverer.transfer(order.fund + (order.fund/100) * lockedRate + deliveryFee + commission);\n  }\n\n  function approveOrder(uint256 orderId) public {\n    Order storage order = orders[orderId];\n    Restaurant storage restaurant = restaurants[order.restaurantId];\n\n    require(restaurant.owner == msg.sender);\n    order.restaurantApproved = true;\n    // lock deliverer commission\n    restaurant.fund -= calculateCommission(order.fund);\n    // event\n    emit orderApproved(orderId, order.orderer);\n  }\n\n  function calculateCommission(uint256 fund) private view returns(uint256){\n    return (fund/100)* commissionRate;\n  }\n\n  function searchAreaRestaurant(uint256 areaId) public view\n  returns(uint256[] memory, string[] memory, string[] memory) {\n    uint256 totalMatch = 0;\n    for(uint256 i=0; i<restaurants.length; i++){\n      Restaurant storage restaurant = restaurants[i];\n      if(restaurant.areaId == areaId  && restaurantIsAvailable(restaurant, 100)){\n        totalMatch++;\n      }\n    }\n    uint256[] memory restIds = new uint256[](totalMatch);\n    string[] memory names = new string[](totalMatch);\n    string[] memory fullAddrs = new string[](totalMatch);\n\n    totalMatch = 0;\n    for(uint256 i=0; i<restaurants.length; i++){\n      Restaurant storage restaurant = restaurants[i];\n      if(restaurant.areaId == areaId  && restaurantIsAvailable(restaurant, 100)){\n        restIds[totalMatch] = i;\n        names[totalMatch] = restaurant.name;\n        fullAddrs[totalMatch] = restaurant.addr;\n        totalMatch++;\n      }\n    }\n  }\n\n  function restaurantIsAvailable(Restaurant memory restaurant, uint256 price) private view returns(bool){\n    return restaurant.fund >= (price/100)* commissionRate;\n  }\n\n  function reclaim(uint256 orderId) public {\n    Order storage order = orders[orderId];\n    require(msg.sender == order.orderer, \"Access rejected.\");\n    require(!order.isCanceled && !order.orderReceived &&\n    !order.reclaimed, \"Invalid reclaim request.\");\n    require(order.orderTime + maxDeliveryTime * 1 minutes < now, \"Try after max order duration.\");\n\n    uint256 ordererAmount = (order.fund/100) * lockedRate + order.fund + deliveryFee; // deliverer locked + oderer locked.\n    order.orderer.transfer(ordererAmount);\n\n    if(order.restaurantApproved){\n      // unlock deliverer commission\n      Restaurant storage restaurant = restaurants[order.restaurantId];\n      restaurant.owner.transfer(calculateCommission(order.fund));\n    }\n    if(order.deliverer == address(0)){\n      order.deliverer.transfer(order.fund);\n    }\n    order.fund = 0;\n    order.reclaimed = true;\n  }\n\n\n  // Deliverer methods\n  function orderIsAvailable(Order memory order) private pure returns(bool){\n    return order.restaurantApproved\n    && order.deliverer == address(0) && !order.isCanceled;\n  }\n\n  function searchAreaOrder(uint256 areaId) public view\n  returns(uint256[] memory, address[] memory, string[] memory, uint256[] memory){\n    uint256 totalMatch = 0;\n    for(uint256 i=0; i<orders.length; i++){\n      Order storage order = orders[i];\n      if(order.areaId == areaId && orderIsAvailable(order)){\n        totalMatch++;\n      }\n    }\n\n    uint256[] memory orderIds = new uint256[](totalMatch);\n    address[] memory orderers = new address[](totalMatch);\n    string[] memory fullAddrs = new string[](totalMatch);\n    uint256[] memory prices = new uint256[](totalMatch);\n\n    totalMatch = 0;\n    for(uint256 i=0; i<orders.length; i++){\n      Order storage order = orders[i];\n      if(order.areaId == areaId && orderIsAvailable(order)){\n        orderIds[totalMatch] =i;\n        orderers[totalMatch] = order.orderer;\n        fullAddrs[totalMatch] = order.fullAddress;\n        prices[totalMatch] = order.fund;\n        totalMatch++;\n      }\n    }\n\n    return (orderIds, orderers, fullAddrs, prices);\n  }\n\n  function acceptOrder(uint256 orderId) public payable {\n    Order storage order = orders[orderId];\n    require(orderIsAvailable(order));\n\n    uint256 expected = order.fund + (order.fund/100)* lockedRate;\n    require(msg.value ==  expected, \"Not enough fund given.\");\n\n    order.deliverer =  msg.sender;\n    // event\n    Restaurant storage restaurant = restaurants[order.restaurantId];\n    emit orderAccepted(orderId, order.deliverer, restaurant.owner);\n  }\n\n  function confirmPickup(uint256 orderId) public {\n    Order storage order = orders[orderId];\n    require(msg.sender == order.deliverer, \"Access rejected.\");\n    require(!order.isCanceled && order.restaurantApproved && !order.pickupConfirmed, \"Invalid request.\");\n\n    order.pickupConfirmed = true;\n    Restaurant storage restaurant = restaurants[order.restaurantId];\n    restaurant.owner.transfer(order.fund);\n    // event\n    emit orderPickedup(orderId, order.orderer);\n  }\n\n  event newRestaurant(uint256 restaurantId);\n  event newOrder(uint256 orderId, address restaurant);\n  event orderCanceled(uint256 orderId, address orderer);\n  event orderApproved(uint256 orderId, address orderer);\n  event orderAccepted(uint256 orderId, address deliverer, address restaurant);\n  event orderPickedup(uint256 orderId, address orderer);\n  // event orderDelivered(uint256 orderId, address orderer);\n\n  function genEvent(uint option) public {\n    if(option == 0){\n      emit newRestaurant(0);\n    } else if(option == 1){\n      emit newOrder(0, 0x02d91Ba6b954cfA50b2Dd685212dAE7Cf26B52B9);\n    } else if (option == 2){\n      emit orderCanceled(0, 0x7E3d972A5916B6dD9b3d518BF8f36D891CECB910);\n    } else if (option == 3){\n      emit orderApproved(0, 0x7E3d972A5916B6dD9b3d518BF8f36D891CECB910);\n    } else if(option == 4){\n      emit orderAccepted(0, 0xbfb21c004EEDc4229d30485E09fcA941eB76223A, 0x02d91Ba6b954cfA50b2Dd685212dAE7Cf26B52B9);\n    } else if(option == 5){\n      emit orderPickedup(0, 0x7E3d972A5916B6dD9b3d518BF8f36D891CECB910);\n    }\n    // else if(option == 5){\n    //     emit orderDelivered(0, 0x7E3d972A5916B6dD9b3d518BF8f36D891CECB910);\n    // }\n  }\n\n}",
  "sourcePath": "/home/sadiq/chainsafe/EthIndia2.0/dFood/contracts/Food.sol",
  "compiler": {
    "name": "solc",
    "version": "0.5.8+commit.23d335f2.Emscripten.clang"
  },
  "schemaVersion": "3.0.11",
  "updatedAt": "2019-08-03T13:59:40.599Z",
  "devdoc": {
    "methods": {}
  },
  "userdoc": {
    "methods": {}
  }
}